{
  "contractName": "KryptoRealStateZKP",
  "abi": [
    {
      "inputs": [
        {
          "internalType": "address",
          "name": "verifier",
          "type": "address"
        }
      ],
      "stateMutability": "nonpayable",
      "type": "constructor"
    },
    {
      "anonymous": false,
      "inputs": [
        {
          "indexed": true,
          "internalType": "address",
          "name": "owner",
          "type": "address"
        },
        {
          "indexed": true,
          "internalType": "address",
          "name": "approved",
          "type": "address"
        },
        {
          "indexed": true,
          "internalType": "uint256",
          "name": "tokenId",
          "type": "uint256"
        }
      ],
      "name": "Approval",
      "type": "event"
    },
    {
      "anonymous": false,
      "inputs": [
        {
          "indexed": true,
          "internalType": "address",
          "name": "owner",
          "type": "address"
        },
        {
          "indexed": true,
          "internalType": "address",
          "name": "operator",
          "type": "address"
        },
        {
          "indexed": false,
          "internalType": "bool",
          "name": "approved",
          "type": "bool"
        }
      ],
      "name": "ApprovalForAll",
      "type": "event"
    },
    {
      "anonymous": false,
      "inputs": [
        {
          "indexed": true,
          "internalType": "address",
          "name": "previousOwner",
          "type": "address"
        },
        {
          "indexed": true,
          "internalType": "address",
          "name": "newOwner",
          "type": "address"
        }
      ],
      "name": "OwnershipTransferred",
      "type": "event"
    },
    {
      "anonymous": false,
      "inputs": [
        {
          "indexed": false,
          "internalType": "address",
          "name": "account",
          "type": "address"
        }
      ],
      "name": "Paused",
      "type": "event"
    },
    {
      "anonymous": false,
      "inputs": [
        {
          "indexed": false,
          "internalType": "address",
          "name": "account",
          "type": "address"
        }
      ],
      "name": "Resumed",
      "type": "event"
    },
    {
      "anonymous": false,
      "inputs": [
        {
          "indexed": false,
          "internalType": "bytes32",
          "name": "key",
          "type": "bytes32"
        },
        {
          "indexed": true,
          "internalType": "address",
          "name": "prover",
          "type": "address"
        }
      ],
      "name": "SolutionAdded",
      "type": "event"
    },
    {
      "anonymous": false,
      "inputs": [
        {
          "indexed": false,
          "internalType": "address",
          "name": "to",
          "type": "address"
        },
        {
          "indexed": false,
          "internalType": "bytes32",
          "name": "key",
          "type": "bytes32"
        },
        {
          "indexed": false,
          "internalType": "uint256",
          "name": "tokenId",
          "type": "uint256"
        }
      ],
      "name": "TokenMinted",
      "type": "event"
    },
    {
      "anonymous": false,
      "inputs": [
        {
          "indexed": true,
          "internalType": "address",
          "name": "from",
          "type": "address"
        },
        {
          "indexed": true,
          "internalType": "address",
          "name": "to",
          "type": "address"
        },
        {
          "indexed": true,
          "internalType": "uint256",
          "name": "tokenId",
          "type": "uint256"
        }
      ],
      "name": "Transfer",
      "type": "event"
    },
    {
      "inputs": [
        {
          "internalType": "address",
          "name": "to",
          "type": "address"
        },
        {
          "internalType": "uint256",
          "name": "tokenId",
          "type": "uint256"
        }
      ],
      "name": "approve",
      "outputs": [],
      "stateMutability": "nonpayable",
      "type": "function"
    },
    {
      "inputs": [
        {
          "internalType": "address",
          "name": "owner",
          "type": "address"
        }
      ],
      "name": "balanceOf",
      "outputs": [
        {
          "internalType": "uint256",
          "name": "",
          "type": "uint256"
        }
      ],
      "stateMutability": "view",
      "type": "function"
    },
    {
      "inputs": [],
      "name": "baseURI",
      "outputs": [
        {
          "internalType": "string",
          "name": "",
          "type": "string"
        }
      ],
      "stateMutability": "view",
      "type": "function"
    },
    {
      "inputs": [
        {
          "internalType": "uint256",
          "name": "tokenId",
          "type": "uint256"
        }
      ],
      "name": "getApproved",
      "outputs": [
        {
          "internalType": "address",
          "name": "",
          "type": "address"
        }
      ],
      "stateMutability": "view",
      "type": "function"
    },
    {
      "inputs": [
        {
          "internalType": "address",
          "name": "owner",
          "type": "address"
        },
        {
          "internalType": "address",
          "name": "operator",
          "type": "address"
        }
      ],
      "name": "isApprovedForAll",
      "outputs": [
        {
          "internalType": "bool",
          "name": "",
          "type": "bool"
        }
      ],
      "stateMutability": "view",
      "type": "function"
    },
    {
      "inputs": [],
      "name": "isPaused",
      "outputs": [
        {
          "internalType": "bool",
          "name": "",
          "type": "bool"
        }
      ],
      "stateMutability": "view",
      "type": "function"
    },
    {
      "inputs": [
        {
          "internalType": "address",
          "name": "to",
          "type": "address"
        },
        {
          "internalType": "uint256",
          "name": "tokenId",
          "type": "uint256"
        }
      ],
      "name": "mint",
      "outputs": [
        {
          "internalType": "bool",
          "name": "",
          "type": "bool"
        }
      ],
      "stateMutability": "nonpayable",
      "type": "function"
    },
    {
      "inputs": [],
      "name": "name",
      "outputs": [
        {
          "internalType": "string",
          "name": "",
          "type": "string"
        }
      ],
      "stateMutability": "view",
      "type": "function"
    },
    {
      "inputs": [],
      "name": "owner",
      "outputs": [
        {
          "internalType": "address",
          "name": "",
          "type": "address"
        }
      ],
      "stateMutability": "view",
      "type": "function"
    },
    {
      "inputs": [
        {
          "internalType": "uint256",
          "name": "tokenId",
          "type": "uint256"
        }
      ],
      "name": "ownerOf",
      "outputs": [
        {
          "internalType": "address",
          "name": "",
          "type": "address"
        }
      ],
      "stateMutability": "view",
      "type": "function"
    },
    {
      "inputs": [],
      "name": "pause",
      "outputs": [],
      "stateMutability": "nonpayable",
      "type": "function"
    },
    {
      "inputs": [],
      "name": "resume",
      "outputs": [],
      "stateMutability": "nonpayable",
      "type": "function"
    },
    {
      "inputs": [
        {
          "internalType": "address",
          "name": "from",
          "type": "address"
        },
        {
          "internalType": "address",
          "name": "to",
          "type": "address"
        },
        {
          "internalType": "uint256",
          "name": "tokenId",
          "type": "uint256"
        }
      ],
      "name": "safeTransferFrom",
      "outputs": [],
      "stateMutability": "nonpayable",
      "type": "function"
    },
    {
      "inputs": [
        {
          "internalType": "address",
          "name": "from",
          "type": "address"
        },
        {
          "internalType": "address",
          "name": "to",
          "type": "address"
        },
        {
          "internalType": "uint256",
          "name": "tokenId",
          "type": "uint256"
        },
        {
          "internalType": "bytes",
          "name": "_data",
          "type": "bytes"
        }
      ],
      "name": "safeTransferFrom",
      "outputs": [],
      "stateMutability": "nonpayable",
      "type": "function"
    },
    {
      "inputs": [
        {
          "internalType": "address",
          "name": "to",
          "type": "address"
        },
        {
          "internalType": "bool",
          "name": "approved",
          "type": "bool"
        }
      ],
      "name": "setApprovalForAll",
      "outputs": [],
      "stateMutability": "nonpayable",
      "type": "function"
    },
    {
      "inputs": [
        {
          "internalType": "bytes4",
          "name": "interfaceId",
          "type": "bytes4"
        }
      ],
      "name": "supportsInterface",
      "outputs": [
        {
          "internalType": "bool",
          "name": "",
          "type": "bool"
        }
      ],
      "stateMutability": "view",
      "type": "function"
    },
    {
      "inputs": [],
      "name": "symbol",
      "outputs": [
        {
          "internalType": "string",
          "name": "",
          "type": "string"
        }
      ],
      "stateMutability": "view",
      "type": "function"
    },
    {
      "inputs": [
        {
          "internalType": "uint256",
          "name": "index",
          "type": "uint256"
        }
      ],
      "name": "tokenByIndex",
      "outputs": [
        {
          "internalType": "uint256",
          "name": "",
          "type": "uint256"
        }
      ],
      "stateMutability": "view",
      "type": "function"
    },
    {
      "inputs": [
        {
          "internalType": "address",
          "name": "owner",
          "type": "address"
        },
        {
          "internalType": "uint256",
          "name": "index",
          "type": "uint256"
        }
      ],
      "name": "tokenOfOwnerByIndex",
      "outputs": [
        {
          "internalType": "uint256",
          "name": "",
          "type": "uint256"
        }
      ],
      "stateMutability": "view",
      "type": "function"
    },
    {
      "inputs": [
        {
          "internalType": "uint256",
          "name": "tokenId",
          "type": "uint256"
        }
      ],
      "name": "tokenURI",
      "outputs": [
        {
          "internalType": "string",
          "name": "",
          "type": "string"
        }
      ],
      "stateMutability": "view",
      "type": "function"
    },
    {
      "inputs": [],
      "name": "totalSupply",
      "outputs": [
        {
          "internalType": "uint256",
          "name": "",
          "type": "uint256"
        }
      ],
      "stateMutability": "view",
      "type": "function"
    },
    {
      "inputs": [
        {
          "internalType": "address",
          "name": "from",
          "type": "address"
        },
        {
          "internalType": "address",
          "name": "to",
          "type": "address"
        },
        {
          "internalType": "uint256",
          "name": "tokenId",
          "type": "uint256"
        }
      ],
      "name": "transferFrom",
      "outputs": [],
      "stateMutability": "nonpayable",
      "type": "function"
    },
    {
      "inputs": [
        {
          "internalType": "address",
          "name": "newOwner",
          "type": "address"
        }
      ],
      "name": "transferOwnership",
      "outputs": [],
      "stateMutability": "nonpayable",
      "type": "function"
    },
    {
      "inputs": [
        {
          "internalType": "uint256[2]",
          "name": "a",
          "type": "uint256[2]"
        },
        {
          "internalType": "uint256[2][2]",
          "name": "b",
          "type": "uint256[2][2]"
        },
        {
          "internalType": "uint256[2]",
          "name": "c",
          "type": "uint256[2]"
        },
        {
          "internalType": "uint256[2]",
          "name": "input",
          "type": "uint256[2]"
        }
      ],
      "name": "submitSolution",
      "outputs": [],
      "stateMutability": "nonpayable",
      "type": "function"
    },
    {
      "inputs": [
        {
          "internalType": "bytes32",
          "name": "key",
          "type": "bytes32"
        }
      ],
      "name": "mintToken",
      "outputs": [],
      "stateMutability": "nonpayable",
      "type": "function"
    }
  ],
  "bytecode": "0x60806040523480156200001157600080fd5b5060405162003cd538038062003cd5833981810160405260208110156200003757600080fd5b81019080805190602001909291905050506040518060400160405280600f81526020017f4b727970746f5265616c537461746500000000000000000000000000000000008152506040518060400160405280600381526020017f4b525300000000000000000000000000000000000000000000000000000000008152506040518060600160405280603f815260200162003c96603f9139620000e66301ffc9a760e01b6200029d60201b60201c565b33600160006101000a81548173ffffffffffffffffffffffffffffffffffffffff021916908373ffffffffffffffffffffffffffffffffffffffff160217905550600160009054906101000a900473ffffffffffffffffffffffffffffffffffffffff1673ffffffffffffffffffffffffffffffffffffffff16600073ffffffffffffffffffffffffffffffffffffffff167f8be0079c531659141344cd1fd0a4f28419497f9722a3daafe3b4186f6b6457e060405160405180910390a36000600160146101000a81548160ff021916908315150217905550620001d76380ac58cd60e01b6200029d60201b60201c565b620001ef63780e9d6360e01b6200029d60201b60201c565b82600a908051906020019062000207929190620003a6565b5081600b908051906020019062000220929190620003a6565b5080600c908051906020019062000239929190620003a6565b5062000252635b5e139f60e01b6200029d60201b60201c565b50505080600e60006101000a81548173ffffffffffffffffffffffffffffffffffffffff021916908373ffffffffffffffffffffffffffffffffffffffff1602179055505062000455565b63ffffffff60e01b817bffffffffffffffffffffffffffffffffffffffffffffffffffffffff191614156200033a576040517f08c379a000000000000000000000000000000000000000000000000000000000815260040180806020018281038252601c8152602001807f4552433136353a20696e76616c696420696e746572666163652049440000000081525060200191505060405180910390fd5b6001600080837bffffffffffffffffffffffffffffffffffffffffffffffffffffffff19167bffffffffffffffffffffffffffffffffffffffffffffffffffffffff1916815260200190815260200160002060006101000a81548160ff02191690831515021790555050565b828054600181600116156101000203166002900490600052602060002090601f016020900481019282601f10620003e957805160ff19168380011785556200041a565b828001600101855582156200041a579182015b8281111562000419578251825591602001919060010190620003fc565b5b5090506200042991906200042d565b5090565b6200045291905b808211156200044e57600081600090555060010162000434565b5090565b90565b61383180620004656000396000f3fe608060405234801561001057600080fd5b50600436106101735760003560e01c80636352211e116100de578063a22cb46511610097578063b88d4fde11610071578063b88d4fde14610837578063c87b56dd1461093c578063e985e9c5146109e3578063f2fde38b14610a5f57610173565b8063a22cb46514610797578063a521ad7c146107e7578063b187bd261461081557610173565b80636352211e146105775780636c0360eb146105e557806370a08231146106685780638456cb59146106c05780638da5cb5b146106ca57806395d89b411461071457610173565b806323b872dd1161013057806323b872dd146103445780632c181d25146103b25780632f745c59146103ff57806340c10f191461046157806342842e0e146104c75780634f6ccce71461053557610173565b806301ffc9a714610178578063046f7da2146101dd57806306fdde03146101e7578063081812fc1461026a578063095ea7b3146102d857806318160ddd14610326575b600080fd5b6101c36004803603602081101561018e57600080fd5b8101908080357bffffffffffffffffffffffffffffffffffffffffffffffffffffffff19169060200190929190505050610aa3565b604051808215151515815260200191505060405180910390f35b6101e5610b0a565b005b6101ef610cb2565b6040518080602001828103825283818151815260200191508051906020019080838360005b8381101561022f578082015181840152602081019050610214565b50505050905090810190601f16801561025c5780820380516001836020036101000a031916815260200191505b509250505060405180910390f35b6102966004803603602081101561028057600080fd5b8101908080359060200190929190505050610d54565b604051808273ffffffffffffffffffffffffffffffffffffffff1673ffffffffffffffffffffffffffffffffffffffff16815260200191505060405180910390f35b610324600480360360408110156102ee57600080fd5b81019080803573ffffffffffffffffffffffffffffffffffffffff16906020019092919080359060200190929190505050610def565b005b61032e61102e565b6040518082815260200191505060405180910390f35b6103b06004803603606081101561035a57600080fd5b81019080803573ffffffffffffffffffffffffffffffffffffffff169060200190929190803573ffffffffffffffffffffffffffffffffffffffff1690602001909291908035906020019092919050505061103b565b005b6103fd60048036036101408110156103c957600080fd5b810190808060400190919291929080608001909192919290806040019091929192908060400190919291929050505061105e565b005b61044b6004803603604081101561041557600080fd5b81019080803573ffffffffffffffffffffffffffffffffffffffff169060200190929190803590602001909291905050506114d6565b6040518082815260200191505060405180910390f35b6104ad6004803603604081101561047757600080fd5b81019080803573ffffffffffffffffffffffffffffffffffffffff16906020019092919080359060200190929190505050611549565b604051808215151515815260200191505060405180910390f35b610533600480360360608110156104dd57600080fd5b81019080803573ffffffffffffffffffffffffffffffffffffffff169060200190929190803573ffffffffffffffffffffffffffffffffffffffff16906020019092919080359060200190929190505050611691565b005b6105616004803603602081101561054b57600080fd5b81019080803590602001909291905050506116b1565b6040518082815260200191505060405180910390f35b6105a36004803603602081101561058d57600080fd5b81019080803590602001909291905050506116e5565b604051808273ffffffffffffffffffffffffffffffffffffffff1673ffffffffffffffffffffffffffffffffffffffff16815260200191505060405180910390f35b6105ed611722565b6040518080602001828103825283818151815260200191508051906020019080838360005b8381101561062d578082015181840152602081019050610612565b50505050905090810190601f16801561065a5780820380516001836020036101000a031916815260200191505b509250505060405180910390f35b6106aa6004803603602081101561067e57600080fd5b81019080803573ffffffffffffffffffffffffffffffffffffffff1690602001909291905050506117c4565b6040518082815260200191505060405180910390f35b6106c8611899565b005b6106d2611a41565b604051808273ffffffffffffffffffffffffffffffffffffffff1673ffffffffffffffffffffffffffffffffffffffff16815260200191505060405180910390f35b61071c611a6b565b6040518080602001828103825283818151815260200191508051906020019080838360005b8381101561075c578082015181840152602081019050610741565b50505050905090810190601f1680156107895780820380516001836020036101000a031916815260200191505b509250505060405180910390f35b6107e5600480360360408110156107ad57600080fd5b81019080803573ffffffffffffffffffffffffffffffffffffffff169060200190929190803515159060200190929190505050611b0d565b005b610813600480360360208110156107fd57600080fd5b8101908080359060200190929190505050611c47565b005b61081d611dcc565b604051808215151515815260200191505060405180910390f35b61093a6004803603608081101561084d57600080fd5b81019080803573ffffffffffffffffffffffffffffffffffffffff169060200190929190803573ffffffffffffffffffffffffffffffffffffffff16906020019092919080359060200190929190803590602001906401000000008111156108b457600080fd5b8201836020820111156108c657600080fd5b803590602001918460018302840111640100000000831117156108e857600080fd5b91908080601f016020809104026020016040519081016040528093929190818152602001838380828437600081840152601f19601f820116905080830192505050505050509192919290505050611de3565b005b6109686004803603602081101561095257600080fd5b8101908080359060200190929190505050611e09565b6040518080602001828103825283818151815260200191508051906020019080838360005b838110156109a857808201518184015260208101905061098d565b50505050905090810190601f1680156109d55780820380516001836020036101000a031916815260200191505b509250505060405180910390f35b610a45600480360360408110156109f957600080fd5b81019080803573ffffffffffffffffffffffffffffffffffffffff169060200190929190803573ffffffffffffffffffffffffffffffffffffffff169060200190929190505050611f1c565b604051808215151515815260200191505060405180910390f35b610aa160048036036020811015610a7557600080fd5b81019080803573ffffffffffffffffffffffffffffffffffffffff169060200190929190505050611fb0565b005b6000806000837bffffffffffffffffffffffffffffffffffffffffffffffffffffffff19167bffffffffffffffffffffffffffffffffffffffffffffffffffffffff1916815260200190815260200160002060009054906101000a900460ff169050919050565b600160149054906101000a900460ff16610b6f576040517f08c379a00000000000000000000000000000000000000000000000000000000081526004018080602001828103825260228152602001806137176022913960400191505060405180910390fd5b3373ffffffffffffffffffffffffffffffffffffffff16600160009054906101000a900473ffffffffffffffffffffffffffffffffffffffff1673ffffffffffffffffffffffffffffffffffffffff1614610c32576040517f08c379a00000000000000000000000000000000000000000000000000000000081526004018080602001828103825260208152602001807f4f776e61626c653a2063616c6c6572206973206e6f7420746865206f776e657281525060200191505060405180910390fd5b6000600160146101000a81548160ff0219169083151502179055507f5d287a3a02ade76478d8449abebe9dc45b38421247132b68127dd3cd6c05f3cf33604051808273ffffffffffffffffffffffffffffffffffffffff1673ffffffffffffffffffffffffffffffffffffffff16815260200191505060405180910390a1565b6060600a8054600181600116156101000203166002900480601f016020809104026020016040519081016040528092919081815260200182805460018160011615610100020316600290048015610d4a5780601f10610d1f57610100808354040283529160200191610d4a565b820191906000526020600020905b815481529060010190602001808311610d2d57829003601f168201915b5050505050905090565b6000610d5f826121b9565b610db4576040517f08c379a000000000000000000000000000000000000000000000000000000000815260040180806020018281038252602c8152602001806135e9602c913960400191505060405180910390fd5b6003600083815260200190815260200160002060009054906101000a900473ffffffffffffffffffffffffffffffffffffffff169050919050565b610df8816121b9565b610e4d576040517f08c379a000000000000000000000000000000000000000000000000000000000815260040180806020018281038252602d815260200180613790602d913960400191505060405180910390fd5b6000610e58826116e5565b90508073ffffffffffffffffffffffffffffffffffffffff168373ffffffffffffffffffffffffffffffffffffffff161415610edf576040517f08c379a00000000000000000000000000000000000000000000000000000000081526004018080602001828103825260218152602001806136cb6021913960400191505060405180910390fd5b8073ffffffffffffffffffffffffffffffffffffffff163373ffffffffffffffffffffffffffffffffffffffff161480610f1f5750610f1e8133611f1c565b5b610f74576040517f08c379a00000000000000000000000000000000000000000000000000000000081526004018080602001828103825260388152602001806135876038913960400191505060405180910390fd5b826003600084815260200190815260200160002060006101000a81548173ffffffffffffffffffffffffffffffffffffffff021916908373ffffffffffffffffffffffffffffffffffffffff160217905550818373ffffffffffffffffffffffffffffffffffffffff16610fe7846116e5565b73ffffffffffffffffffffffffffffffffffffffff167f8c5be1e5ebec7d5bd14f71427d1e84f3dd0314c0f7b2291e5b200ac8c7c3b92560405160405180910390a4505050565b6000600880549050905090565b611045338261222b565b61104e57600080fd5b6110598383836122c0565b505050565b60008460006002811061106d57fe5b60200201358560016002811061107f57fe5b60200201358560006002811061109157fe5b604002016000600281106110a157fe5b6020020135866000600281106110b357fe5b604002016001600281106110c357fe5b6020020135876001600281106110d557fe5b604002016000600281106110e557fe5b6020020135886001600281106110f757fe5b6040020160016002811061110757fe5b60200201358860006002811061111957fe5b60200201358960016002811061112b57fe5b60200201358960006002811061113d57fe5b60200201358a60016002811061114f57fe5b6020020135604051602001808b81526020018a81526020018981526020018881526020018781526020018681526020018581526020018481526020018381526020018281526020019a50505050505050505050506040516020818303038152906040528051906020012090506111c4816122e4565b1561121a576040517f08c379a000000000000000000000000000000000000000000000000000000000815260040180806020018281038252602b8152602001806136ec602b913960400191505060405180910390fd5b61133a856002806020026040519081016040528092919082600260200280828437600081840152601f19601f82011690508083019250505050505085600280602002604051908101604052809291906000905b828210156112c1578382604002016002806020026040519081016040528092919082600260200280828437600081840152601f19601f8201169050808301925050505050508152602001906001019061126d565b50505050856002806020026040519081016040528092919082600260200280828437600081840152601f19601f820116905080830192505050505050856002806020026040519081016040528092919082600260200280828437600081840152601f19601f820116905080830192505050505050612303565b61138f576040517f08c379a000000000000000000000000000000000000000000000000000000000815260040180806020018281038252603f8152602001806137bd603f913960400191505060405180910390fd5b600f60405180606001604052808381526020013373ffffffffffffffffffffffffffffffffffffffff1681526020016000151581525090806001815401808255809150506001900390600052602060002090600202016000909190919091506000820151816000015560208201518160010160006101000a81548173ffffffffffffffffffffffffffffffffffffffff021916908373ffffffffffffffffffffffffffffffffffffffff16021790555060408201518160010160146101000a81548160ff02191690831515021790555050506001600f805490500360106000838152602001908152602001600020819055503373ffffffffffffffffffffffffffffffffffffffff167f01d5f9f5a890e5385b4f1d07d3c8c1f739f82bb433ed461d4551b7af3edc6340826040518082815260200191505060405180910390a25050505050565b60006114e1836117c4565b82106114ec57600080fd5b600660008473ffffffffffffffffffffffffffffffffffffffff1673ffffffffffffffffffffffffffffffffffffffff168152602001908152602001600020828154811061153657fe5b9060005260206000200154905092915050565b60003373ffffffffffffffffffffffffffffffffffffffff16600160009054906101000a900473ffffffffffffffffffffffffffffffffffffffff1673ffffffffffffffffffffffffffffffffffffffff161461160e576040517f08c379a00000000000000000000000000000000000000000000000000000000081526004018080602001828103825260208152602001807f4f776e61626c653a2063616c6c6572206973206e6f7420746865206f776e657281525060200191505060405180910390fd5b600160149054906101000a900460ff1615611674576040517f08c379a000000000000000000000000000000000000000000000000000000000815260040180806020018281038252602681526020018061376a6026913960400191505060405180910390fd5b61167e8383612498565b611687826124b9565b6001905092915050565b6116ac83838360405180602001604052806000815250611de3565b505050565b60006116bb61102e565b82106116c657600080fd5b600882815481106116d357fe5b90600052602060002001549050919050565b60006002600083815260200190815260200160002060009054906101000a900473ffffffffffffffffffffffffffffffffffffffff169050919050565b6060600c8054600181600116156101000203166002900480601f0160208091040260200160405190810160405280929190818152602001828054600181600116156101000203166002900480156117ba5780601f1061178f576101008083540402835291602001916117ba565b820191906000526020600020905b81548152906001019060200180831161179d57829003601f168201915b5050505050905090565b60008073ffffffffffffffffffffffffffffffffffffffff168273ffffffffffffffffffffffffffffffffffffffff16141561184b576040517f08c379a000000000000000000000000000000000000000000000000000000000815260040180806020018281038252602a8152602001806135bf602a913960400191505060405180910390fd5b611892600460008473ffffffffffffffffffffffffffffffffffffffff1673ffffffffffffffffffffffffffffffffffffffff168152602001908152602001600020612610565b9050919050565b600160149054906101000a900460ff16156118ff576040517f08c379a000000000000000000000000000000000000000000000000000000000815260040180806020018281038252602681526020018061376a6026913960400191505060405180910390fd5b3373ffffffffffffffffffffffffffffffffffffffff16600160009054906101000a900473ffffffffffffffffffffffffffffffffffffffff1673ffffffffffffffffffffffffffffffffffffffff16146119c2576040517f08c379a00000000000000000000000000000000000000000000000000000000081526004018080602001828103825260208152602001807f4f776e61626c653a2063616c6c6572206973206e6f7420746865206f776e657281525060200191505060405180910390fd5b60018060146101000a81548160ff0219169083151502179055507f62e78cea01bee320cd4e420270b5ea74000d11b0c9f74754ebdbfc544b05a25833604051808273ffffffffffffffffffffffffffffffffffffffff1673ffffffffffffffffffffffffffffffffffffffff16815260200191505060405180910390a1565b6000600160009054906101000a900473ffffffffffffffffffffffffffffffffffffffff16905090565b6060600b8054600181600116156101000203166002900480601f016020809104026020016040519081016040528092919081815260200182805460018160011615610100020316600290048015611b035780601f10611ad857610100808354040283529160200191611b03565b820191906000526020600020905b815481529060010190602001808311611ae657829003601f168201915b5050505050905090565b3373ffffffffffffffffffffffffffffffffffffffff168273ffffffffffffffffffffffffffffffffffffffff161415611b4657600080fd5b80600560003373ffffffffffffffffffffffffffffffffffffffff1673ffffffffffffffffffffffffffffffffffffffff16815260200190815260200160002060008473ffffffffffffffffffffffffffffffffffffffff1673ffffffffffffffffffffffffffffffffffffffff16815260200190815260200160002060006101000a81548160ff0219169083151502179055508173ffffffffffffffffffffffffffffffffffffffff163373ffffffffffffffffffffffffffffffffffffffff167f17307eab39ab6107e8899845ad3d59bd9653f200f220920489ca2b5937696c3183604051808215151515815260200191505060405180910390a35050565b803373ffffffffffffffffffffffffffffffffffffffff16611c688261261e565b6020015173ffffffffffffffffffffffffffffffffffffffff1614611cd8576040517f08c379a000000000000000000000000000000000000000000000000000000000815260040180806020018281038252603481526020018061352f6034913960400191505060405180910390fd5b611ce18261261e565b6040015115611d3b576040517f08c379a00000000000000000000000000000000000000000000000000000000081526004018080602001828103825260328152602001806136996032913960400191505060405180910390fd5b611d44826126e7565b611d51338360001c611549565b507f07f44d32175369544305976bd326a6e5e99ede758a9980de84c645babf62096933838460001c604051808473ffffffffffffffffffffffffffffffffffffffff1673ffffffffffffffffffffffffffffffffffffffff168152602001838152602001828152602001935050505060405180910390a15050565b6000600160149054906101000a900460ff16905090565b611dee84848461103b565b611dfa8484848461273a565b611e0357600080fd5b50505050565b6060611e14826121b9565b611e69576040517f08c379a000000000000000000000000000000000000000000000000000000000815260040180806020018281038252602f81526020018061366a602f913960400191505060405180910390fd5b600d60008381526020019081526020016000208054600181600116156101000203166002900480601f016020809104026020016040519081016040528092919081815260200182805460018160011615610100020316600290048015611f105780601f10611ee557610100808354040283529160200191611f10565b820191906000526020600020905b815481529060010190602001808311611ef357829003601f168201915b50505050509050919050565b6000600560008473ffffffffffffffffffffffffffffffffffffffff1673ffffffffffffffffffffffffffffffffffffffff16815260200190815260200160002060008373ffffffffffffffffffffffffffffffffffffffff1673ffffffffffffffffffffffffffffffffffffffff16815260200190815260200160002060009054906101000a900460ff16905092915050565b3373ffffffffffffffffffffffffffffffffffffffff16600160009054906101000a900473ffffffffffffffffffffffffffffffffffffffff1673ffffffffffffffffffffffffffffffffffffffff1614612073576040517f08c379a00000000000000000000000000000000000000000000000000000000081526004018080602001828103825260208152602001807f4f776e61626c653a2063616c6c6572206973206e6f7420746865206f776e657281525060200191505060405180910390fd5b600073ffffffffffffffffffffffffffffffffffffffff168173ffffffffffffffffffffffffffffffffffffffff1614156120f9576040517f08c379a00000000000000000000000000000000000000000000000000000000081526004018080602001828103825260268152602001806135096026913960400191505060405180910390fd5b80600160006101000a81548173ffffffffffffffffffffffffffffffffffffffff021916908373ffffffffffffffffffffffffffffffffffffffff1602179055508073ffffffffffffffffffffffffffffffffffffffff16600160009054906101000a900473ffffffffffffffffffffffffffffffffffffffff1673ffffffffffffffffffffffffffffffffffffffff167f8be0079c531659141344cd1fd0a4f28419497f9722a3daafe3b4186f6b6457e060405160405180910390a350565b6000806002600084815260200190815260200160002060009054906101000a900473ffffffffffffffffffffffffffffffffffffffff169050600073ffffffffffffffffffffffffffffffffffffffff168173ffffffffffffffffffffffffffffffffffffffff161415915050919050565b600080612237836116e5565b90508073ffffffffffffffffffffffffffffffffffffffff168473ffffffffffffffffffffffffffffffffffffffff1614806122a657508373ffffffffffffffffffffffffffffffffffffffff1661228e84610d54565b73ffffffffffffffffffffffffffffffffffffffff16145b806122b757506122b68185611f1c565b5b91505092915050565b6122cb838383612923565b6122d58382612bdd565b6122df8282612d86565b505050565b6000806010600084815260200190815260200160002054149050919050565b6000600e60009054906101000a900473ffffffffffffffffffffffffffffffffffffffff1673ffffffffffffffffffffffffffffffffffffffff1663621e9ec0868686866040518563ffffffff1660e01b81526004018085600260200280838360005b83811015612381578082015181840152602081019050612366565b505050509050018460026000925b818410156123d55782846020020151600260200280838360005b838110156123c45780820151818401526020810190506123a9565b50505050905001926001019261238f565b9250505083600260200280838360005b838110156124005780820151818401526020810190506123e5565b5050505090500182600260200280838360005b8381101561242e578082015181840152602081019050612413565b5050505090500194505050505060206040518083038186803b15801561245357600080fd5b505afa158015612467573d6000803e3d6000fd5b505050506040513d602081101561247d57600080fd5b81019080805190602001909291905050509050949350505050565b6124a28282612e4a565b6124ac8282612d86565b6124b581613062565b5050565b6124c2816121b9565b612517576040517f08c379a000000000000000000000000000000000000000000000000000000000815260040180806020018281038252602c815260200180613615602c913960400191505060405180910390fd5b600c612522826130ab565b60405160200180838054600181600116156101000203166002900480156125805780601f1061255e576101008083540402835291820191612580565b820191906000526020600020905b81548152906001019060200180831161256c575b505082805190602001908083835b602083106125b1578051825260208201915060208101905060208303925061258e565b6001836020036101000a03801982511681845116808217855250505050505090500192505050604051602081830303815290604052600d6000838152602001908152602001600020908051906020019061260c929190613427565b5050565b600081600001549050919050565b6126266134a7565b600060106000848152602001908152602001600020549050600f818154811061264b57fe5b9060005260206000209060020201604051806060016040529081600082015481526020016001820160009054906101000a900473ffffffffffffffffffffffffffffffffffffffff1673ffffffffffffffffffffffffffffffffffffffff1673ffffffffffffffffffffffffffffffffffffffff1681526020016001820160149054906101000a900460ff161515151581525050915050919050565b6000601060008381526020019081526020016000205490506001600f828154811061270e57fe5b906000526020600020906002020160010160146101000a81548160ff0219169083151502179055505050565b600061275b8473ffffffffffffffffffffffffffffffffffffffff166131db565b612768576001905061291b565b60008473ffffffffffffffffffffffffffffffffffffffff1663150b7a02338887876040518563ffffffff1660e01b8152600401808573ffffffffffffffffffffffffffffffffffffffff1673ffffffffffffffffffffffffffffffffffffffff1681526020018473ffffffffffffffffffffffffffffffffffffffff1673ffffffffffffffffffffffffffffffffffffffff16815260200183815260200180602001828103825283818151815260200191508051906020019080838360005b83811015612843578082015181840152602081019050612828565b50505050905090810190601f1680156128705780820380516001836020036101000a031916815260200191505b5095505050505050602060405180830381600087803b15801561289257600080fd5b505af11580156128a6573d6000803e3d6000fd5b505050506040513d60208110156128bc57600080fd5b8101908080519060200190929190505050905063150b7a0260e01b7bffffffffffffffffffffffffffffffffffffffffffffffffffffffff1916817bffffffffffffffffffffffffffffffffffffffffffffffffffffffff1916149150505b949350505050565b61292d338261222b565b612982576040517f08c379a00000000000000000000000000000000000000000000000000000000081526004018080602001828103825260318152602001806137396031913960400191505060405180910390fd5b8273ffffffffffffffffffffffffffffffffffffffff166129a2826116e5565b73ffffffffffffffffffffffffffffffffffffffff1614612a0e576040517f08c379a00000000000000000000000000000000000000000000000000000000081526004018080602001828103825260298152602001806136416029913960400191505060405180910390fd5b600073ffffffffffffffffffffffffffffffffffffffff168273ffffffffffffffffffffffffffffffffffffffff161415612a94576040517f08c379a00000000000000000000000000000000000000000000000000000000081526004018080602001828103825260248152602001806135636024913960400191505060405180910390fd5b612a9d81613226565b816002600083815260200190815260200160002060006101000a81548173ffffffffffffffffffffffffffffffffffffffff021916908373ffffffffffffffffffffffffffffffffffffffff160217905550612b36600460008573ffffffffffffffffffffffffffffffffffffffff1673ffffffffffffffffffffffffffffffffffffffff1681526020019081526020016000206132e4565b612b7d600460008473ffffffffffffffffffffffffffffffffffffffff1673ffffffffffffffffffffffffffffffffffffffff168152602001908152602001600020613307565b808273ffffffffffffffffffffffffffffffffffffffff168473ffffffffffffffffffffffffffffffffffffffff167fddf252ad1be2c89b69c2b068fc378daa952ba7f163c4a11628f55a4df523b3ef60405160405180910390a4505050565b6000612c356001600660008673ffffffffffffffffffffffffffffffffffffffff1673ffffffffffffffffffffffffffffffffffffffff1681526020019081526020016000208054905061331d90919063ffffffff16565b9050600060076000848152602001908152602001600020549050818114612d22576000600660008673ffffffffffffffffffffffffffffffffffffffff1673ffffffffffffffffffffffffffffffffffffffff1681526020019081526020016000208381548110612ca257fe5b9060005260206000200154905080600660008773ffffffffffffffffffffffffffffffffffffffff1673ffffffffffffffffffffffffffffffffffffffff1681526020019081526020016000208381548110612cfa57fe5b9060005260206000200181905550816007600083815260200190815260200160002081905550505b600660008573ffffffffffffffffffffffffffffffffffffffff1673ffffffffffffffffffffffffffffffffffffffff168152602001908152602001600020805480612d6a57fe5b6001900381819060005260206000200160009055905550505050565b600660008373ffffffffffffffffffffffffffffffffffffffff1673ffffffffffffffffffffffffffffffffffffffff168152602001908152602001600020805490506007600083815260200190815260200160002081905550600660008373ffffffffffffffffffffffffffffffffffffffff1673ffffffffffffffffffffffffffffffffffffffff1681526020019081526020016000208190806001815401808255809150506001900390600052602060002001600090919091909150555050565b600073ffffffffffffffffffffffffffffffffffffffff168273ffffffffffffffffffffffffffffffffffffffff161415612eed576040517f08c379a00000000000000000000000000000000000000000000000000000000081526004018080602001828103825260208152602001807f4552433732313a206d696e7420746f20746865207a65726f206164647265737381525060200191505060405180910390fd5b612ef6816121b9565b15612f69576040517f08c379a000000000000000000000000000000000000000000000000000000000815260040180806020018281038252601c8152602001807f4552433732313a20746f6b656e20616c7265616479206d696e7465640000000081525060200191505060405180910390fd5b816002600083815260200190815260200160002060006101000a81548173ffffffffffffffffffffffffffffffffffffffff021916908373ffffffffffffffffffffffffffffffffffffffff160217905550613002600460008473ffffffffffffffffffffffffffffffffffffffff1673ffffffffffffffffffffffffffffffffffffffff168152602001908152602001600020613307565b808273ffffffffffffffffffffffffffffffffffffffff16600073ffffffffffffffffffffffffffffffffffffffff167fddf252ad1be2c89b69c2b068fc378daa952ba7f163c4a11628f55a4df523b3ef60405160405180910390a45050565b6008805490506009600083815260200190815260200160002081905550600881908060018154018082558091505060019003906000526020600020016000909190919091505550565b606060008214156130f3576040518060400160405280600181526020017f300000000000000000000000000000000000000000000000000000000000000081525090506131d6565b600082905060005b6000821461311d578080600101915050600a828161311557fe5b0491506130fb565b6060816040519080825280601f01601f1916602001820160405280156131525781602001600182028038833980820191505090505b50905060006001830390508593505b600084146131ce57600a848161317357fe5b0660300160f81b8282806001900393508151811061318d57fe5b60200101907effffffffffffffffffffffffffffffffffffffffffffffffffffffffffffff1916908160001a905350600a84816131c657fe5b049350613161565b819450505050505b919050565b60008060007fc5d2460186f7233c927e7db2dcc703c0e500b653ca82273b7bfad8045d85a47060001b9050833f915080821415801561321d57506000801b8214155b92505050919050565b600073ffffffffffffffffffffffffffffffffffffffff166003600083815260200190815260200160002060009054906101000a900473ffffffffffffffffffffffffffffffffffffffff1673ffffffffffffffffffffffffffffffffffffffff16146132e15760006003600083815260200190815260200160002060006101000a81548173ffffffffffffffffffffffffffffffffffffffff021916908373ffffffffffffffffffffffffffffffffffffffff1602179055505b50565b6132fc6001826000015461331d90919063ffffffff16565b816000018190555050565b6001816000016000828254019250508190555050565b600061335f83836040518060400160405280601e81526020017f536166654d6174683a207375627472616374696f6e206f766572666c6f770000815250613367565b905092915050565b6000838311158290613414576040517f08c379a00000000000000000000000000000000000000000000000000000000081526004018080602001828103825283818151815260200191508051906020019080838360005b838110156133d95780820151818401526020810190506133be565b50505050905090810190601f1680156134065780820380516001836020036101000a031916815260200191505b509250505060405180910390fd5b5060008385039050809150509392505050565b828054600181600116156101000203166002900490600052602060002090601f016020900481019282601f1061346857805160ff1916838001178555613496565b82800160010185558215613496579182015b8281111561349557825182559160200191906001019061347a565b5b5090506134a391906134e3565b5090565b604051806060016040528060008019168152602001600073ffffffffffffffffffffffffffffffffffffffff1681526020016000151581525090565b61350591905b808211156135015760008160009055506001016134e9565b5090565b9056fe4f776e61626c653a206e6577206f776e657220697320746865207a65726f20616464726573734b727970746f5265616c53746174655a4b503a206f6e6c79207468652070726f7665722063616e206d696e74206120746f6b656e4552433732313a207472616e7366657220746f20746865207a65726f20616464726573734552433732313a20617070726f76652063616c6c6572206973206e6f74206f776e6572206e6f7220617070726f76656420666f7220616c6c4552433732313a2062616c616e636520717565727920666f7220746865207a65726f20616464726573734552433732313a20617070726f76656420717565727920666f72206e6f6e6578697374656e7420746f6b656e4552433732314d657461646174613a2055524920736574206f66206e6f6e6578697374656e7420746f6b656e4552433732313a207472616e73666572206f6620746f6b656e2074686174206973206e6f74206f776e4552433732314d657461646174613a2055524920717565727920666f72206e6f6e6578697374656e7420746f6b656e4b727970746f5265616c53746174655a4b503a20736f6c7574696f6e20686173206265656e207573656420616c72656164794552433732313a20617070726f76616c20746f2063757272656e74206f776e65724b727970746f5265616c53746174655a4b503a20736f6c7574696f6e2065786973747320616c72656164795061757361626c653a206578706563746564202770617573656427207374617475734552433732313a207472616e736665722063616c6c6572206973206e6f74206f776e6572206e6f7220617070726f7665645061757361626c653a20657870656374656420276e6f742070617573656427207374617475734552433732313a20617070726f7665207265717565737420666f72206e6f6e6578697374656e7420746f6b656e4b727970746f5265616c53746174655a4b503a20736f6c7574696f6e2070726f6f66206973202a6e6f742a2076616c696420666f722074686520696e707574a264697066735822122039daf1dd096e2b2d71d328aa4f1026453dff0ee426be49380be3f727ec46123164736f6c6343000602003368747470733a2f2f73332d75732d776573742d322e616d617a6f6e6177732e636f6d2f756461636974792d626c6f636b636861696e2f63617073746f6e652f",
  "source": "// SPDX-License-Identifier: MIT\r\n\r\npragma solidity 0.6.2;\r\n\r\nimport \"./KryptoRealState.sol\";\r\nimport \"../zokrates/code/square/verifier.sol\";\r\n\r\ncontract KryptoRealStateZKP is KryptoRealState {\r\n    SquareVerifier private squareVerifier;\r\n\r\n    struct Solution {\r\n        bytes32 key;\r\n        address prover;\r\n        bool redeemed;\r\n    }\r\n    // Array with all solutions, used for enumeration\r\n    Solution[] private _solutions;\r\n\r\n    // Mapping from solution key to the position in the solutions array\r\n    mapping(bytes32 => uint256) private _solutionsIndex;\r\n\r\n    modifier onlyProver(bytes32 key) {\r\n        require(\r\n            _solution(key).prover == msg.sender,\r\n            \"KryptoRealStateZKP: only the prover can mint a token\"\r\n        );\r\n        _;\r\n    }\r\n\r\n    event SolutionAdded(bytes32 key, address indexed prover);\r\n    event TokenMinted(address to, bytes32 key, uint256 tokenId);\r\n\r\n    constructor(address verifier) public KryptoRealState() {\r\n        squareVerifier = SquareVerifier(verifier);\r\n    }\r\n\r\n    /**\r\n     * @dev Submit a candidate solution for verification.\r\n     */\r\n    function submitSolution(\r\n        uint256[2] calldata a,\r\n        uint256[2][2] calldata b,\r\n        uint256[2] calldata c,\r\n        uint256[2] calldata input\r\n    ) external {\r\n        bytes32 key = keccak256(\r\n            abi.encodePacked(\r\n                a[0],\r\n                a[1],\r\n                b[0][0],\r\n                b[0][1],\r\n                b[1][0],\r\n                b[1][1],\r\n                c[0],\r\n                c[1],\r\n                input[0],\r\n                input[1]\r\n            )\r\n        );\r\n        require(!_exists(key), \"KryptoRealStateZKP: solution exists already\");\r\n\r\n        require(\r\n            _isValidProof(a, b, c, input),\r\n            \"KryptoRealStateZKP: solution proof is *not* valid for the input\"\r\n        );\r\n\r\n        _solutions.push(Solution(key, msg.sender, false));\r\n        _solutionsIndex[key] = _solutions.length - 1;\r\n\r\n        emit SolutionAdded(key, msg.sender);\r\n    }\r\n\r\n    /**\r\n     * @dev Mints token.\r\n     */\r\n    function mintToken(bytes32 key) external onlyProver(key) {\r\n        require(\r\n            !(_solution(key).redeemed),\r\n            \"KryptoRealStateZKP: solution has been used already\"\r\n        );\r\n\r\n        _redeemSolution(key);\r\n        super.mint(msg.sender, uint256(key));\r\n        emit TokenMinted(msg.sender, key, uint256(key));\r\n    }\r\n\r\n    function _solution(bytes32 key) internal view returns (Solution memory) {\r\n        uint256 index = _solutionsIndex[key];\r\n        return _solutions[index];\r\n    }\r\n\r\n    function _exists(bytes32 key) internal view returns (bool) {\r\n        return _solutionsIndex[key] == 0;\r\n    }\r\n\r\n    function _redeemSolution(bytes32 key) internal {\r\n        uint256 index = _solutionsIndex[key];\r\n        _solutions[index].redeemed = true;\r\n    }\r\n\r\n    function _isValidProof(\r\n        uint256[2] memory a,\r\n        uint256[2][2] memory b,\r\n        uint256[2] memory c,\r\n        uint256[2] memory input\r\n    ) internal view returns (bool) {\r\n        return squareVerifier.verifyTx(a, b, c, input);\r\n    }\r\n}\r\n",
  "sourcePath": "C:\\Users\\Diego\\dev\\blockchain\\dapp-real-state\\contracts\\token\\KyptoRealStateZKP.sol",
  "compiler": {
    "name": "solc",
    "version": "0.6.2+commit.bacdbe57.Emscripten.clang"
  },
  "schemaVersion": "3.2.0",
  "updatedAt": "2020-08-30T17:17:19.442Z",
  "devdoc": {
    "methods": {
      "approve(address,uint256)": {
        "details": "Gives permission to `to` to transfer `tokenId` token to another account. The approval is cleared when the token is transferred.      * Only a single account can be approved at a time, so approving the zero address clears previous approvals.      * Requirements:      * - The caller must own the token or be an approved operator. - `tokenId` must exist.      * Emits an {Approval} event."
      },
      "baseURI()": {
        "details": "Returns the base URI set via {_setBaseURI}."
      },
      "getApproved(uint256)": {
        "details": "Returns the account approved for `tokenId` token."
      },
      "isApprovedForAll(address,address)": {
        "details": "Tells whether an operator is approved by a given owner",
        "params": {
          "operator": "operator address which you want to query the approval of",
          "owner": "owner address which you want to query the approval of"
        },
        "returns": {
          "_0": "bool whether the given operator is approved by the given owner"
        }
      },
      "isPaused()": {
        "details": "Returns true if the contract is paused."
      },
      "mintToken(bytes32)": {
        "details": "Mints token."
      },
      "name()": {
        "details": "Returns the token name."
      },
      "owner()": {
        "details": "Returns the address of the current owner."
      },
      "pause()": {
        "details": "Stops operational state."
      },
      "resume()": {
        "details": "Resumes operational state."
      },
      "setApprovalForAll(address,bool)": {
        "details": "Sets or unsets the approval of a given operator An operator is allowed to transfer all tokens of the sender on their behalf",
        "params": {
          "approved": "representing the status of the approval to be set",
          "to": "operator address to set the approval"
        }
      },
      "submitSolution(uint256[2],uint256[2][2],uint256[2],uint256[2])": {
        "details": "Submit a candidate solution for verification."
      },
      "supportsInterface(bytes4)": {
        "details": "Returns true if this contract implements the interface defined by `interfaceId`. See the corresponding https://eips.ethereum.org/EIPS/eip-165#how-interfaces-are-identified[EIP section].      * Time complexity O(1), guaranteed to always use less than 30 000 gas."
      },
      "symbol()": {
        "details": "Returns the token symbol."
      },
      "tokenByIndex(uint256)": {
        "details": "Gets the token ID at a given index of all the tokens in this contract Reverts if the index is greater or equal to the total number of tokens",
        "params": {
          "index": "uint256 representing the index to be accessed of the tokens list"
        },
        "returns": {
          "_0": "uint256 token ID at the given index of the tokens list"
        }
      },
      "tokenOfOwnerByIndex(address,uint256)": {
        "details": "Gets the token ID at a given index of the tokens list of the requested owner",
        "params": {
          "index": "uint256 representing the index to be accessed of the requested tokens list",
          "owner": "address owning the tokens list to be accessed"
        },
        "returns": {
          "_0": "uint256 token ID at the given index of the tokens list owned by the requested address"
        }
      },
      "tokenURI(uint256)": {
        "details": "Returns an URI for a given token ID Throws if the token ID does not exist. It may return an empty string.",
        "params": {
          "tokenId": "uint256 ID of the token to query"
        }
      },
      "totalSupply()": {
        "details": "Gets the total amount of tokens stored by the contract",
        "returns": {
          "_0": "uint256 representing the total amount of tokens"
        }
      },
      "transferOwnership(address)": {
        "details": "Transfers ownership of the contract to a new account (`newOwner`). Can only be called by the current owner."
      }
    }
  },
  "userdoc": {
    "methods": {}
  }
}